{
  "_format": "hh-sol-artifact-1",
  "contractName": "TravelSBT",
  "sourceName": "contracts/TravelSBT.sol",
  "abi": [
    {
      "inputs": [],
      "stateMutability": "nonpayable",
      "type": "constructor"
    },
    {
      "inputs": [
        {
          "internalType": "address",
          "name": "sender",
          "type": "address"
        },
        {
          "internalType": "uint256",
          "name": "tokenId",
          "type": "uint256"
        },
        {
          "internalType": "address",
          "name": "owner",
          "type": "address"
        }
      ],
      "name": "ERC721IncorrectOwner",
      "type": "error"
    },
    {
      "inputs": [
        {
          "internalType": "address",
          "name": "operator",
          "type": "address"
        },
        {
          "internalType": "uint256",
          "name": "tokenId",
          "type": "uint256"
        }
      ],
      "name": "ERC721InsufficientApproval",
      "type": "error"
    },
    {
      "inputs": [
        {
          "internalType": "address",
          "name": "approver",
          "type": "address"
        }
      ],
      "name": "ERC721InvalidApprover",
      "type": "error"
    },
    {
      "inputs": [
        {
          "internalType": "address",
          "name": "operator",
          "type": "address"
        }
      ],
      "name": "ERC721InvalidOperator",
      "type": "error"
    },
    {
      "inputs": [
        {
          "internalType": "address",
          "name": "owner",
          "type": "address"
        }
      ],
      "name": "ERC721InvalidOwner",
      "type": "error"
    },
    {
      "inputs": [
        {
          "internalType": "address",
          "name": "receiver",
          "type": "address"
        }
      ],
      "name": "ERC721InvalidReceiver",
      "type": "error"
    },
    {
      "inputs": [
        {
          "internalType": "address",
          "name": "sender",
          "type": "address"
        }
      ],
      "name": "ERC721InvalidSender",
      "type": "error"
    },
    {
      "inputs": [
        {
          "internalType": "uint256",
          "name": "tokenId",
          "type": "uint256"
        }
      ],
      "name": "ERC721NonexistentToken",
      "type": "error"
    },
    {
      "anonymous": false,
      "inputs": [
        {
          "indexed": true,
          "internalType": "address",
          "name": "owner",
          "type": "address"
        },
        {
          "indexed": true,
          "internalType": "address",
          "name": "approved",
          "type": "address"
        },
        {
          "indexed": true,
          "internalType": "uint256",
          "name": "tokenId",
          "type": "uint256"
        }
      ],
      "name": "Approval",
      "type": "event"
    },
    {
      "anonymous": false,
      "inputs": [
        {
          "indexed": true,
          "internalType": "address",
          "name": "owner",
          "type": "address"
        },
        {
          "indexed": true,
          "internalType": "address",
          "name": "operator",
          "type": "address"
        },
        {
          "indexed": false,
          "internalType": "bool",
          "name": "approved",
          "type": "bool"
        }
      ],
      "name": "ApprovalForAll",
      "type": "event"
    },
    {
      "anonymous": false,
      "inputs": [
        {
          "indexed": true,
          "internalType": "address",
          "name": "from",
          "type": "address"
        },
        {
          "indexed": true,
          "internalType": "address",
          "name": "to",
          "type": "address"
        },
        {
          "indexed": true,
          "internalType": "uint256",
          "name": "tokenId",
          "type": "uint256"
        }
      ],
      "name": "Transfer",
      "type": "event"
    },
    {
      "inputs": [
        {
          "internalType": "address",
          "name": "to",
          "type": "address"
        },
        {
          "internalType": "uint256",
          "name": "tokenId",
          "type": "uint256"
        }
      ],
      "name": "approve",
      "outputs": [],
      "stateMutability": "nonpayable",
      "type": "function"
    },
    {
      "inputs": [
        {
          "internalType": "address",
          "name": "owner",
          "type": "address"
        }
      ],
      "name": "balanceOf",
      "outputs": [
        {
          "internalType": "uint256",
          "name": "",
          "type": "uint256"
        }
      ],
      "stateMutability": "view",
      "type": "function"
    },
    {
      "inputs": [
        {
          "internalType": "uint256",
          "name": "tokenId",
          "type": "uint256"
        }
      ],
      "name": "getApproved",
      "outputs": [
        {
          "internalType": "address",
          "name": "",
          "type": "address"
        }
      ],
      "stateMutability": "view",
      "type": "function"
    },
    {
      "inputs": [
        {
          "internalType": "address",
          "name": "owner",
          "type": "address"
        },
        {
          "internalType": "address",
          "name": "operator",
          "type": "address"
        }
      ],
      "name": "isApprovedForAll",
      "outputs": [
        {
          "internalType": "bool",
          "name": "",
          "type": "bool"
        }
      ],
      "stateMutability": "view",
      "type": "function"
    },
    {
      "inputs": [
        {
          "internalType": "address",
          "name": "traveler",
          "type": "address"
        },
        {
          "internalType": "uint256",
          "name": "milestoneType",
          "type": "uint256"
        }
      ],
      "name": "mintMilestoneSBT",
      "outputs": [],
      "stateMutability": "nonpayable",
      "type": "function"
    },
    {
      "inputs": [],
      "name": "name",
      "outputs": [
        {
          "internalType": "string",
          "name": "",
          "type": "string"
        }
      ],
      "stateMutability": "view",
      "type": "function"
    },
    {
      "inputs": [
        {
          "internalType": "uint256",
          "name": "tokenId",
          "type": "uint256"
        }
      ],
      "name": "ownerOf",
      "outputs": [
        {
          "internalType": "address",
          "name": "",
          "type": "address"
        }
      ],
      "stateMutability": "view",
      "type": "function"
    },
    {
      "inputs": [
        {
          "internalType": "address",
          "name": "from",
          "type": "address"
        },
        {
          "internalType": "address",
          "name": "to",
          "type": "address"
        },
        {
          "internalType": "uint256",
          "name": "tokenId",
          "type": "uint256"
        }
      ],
      "name": "safeTransferFrom",
      "outputs": [],
      "stateMutability": "nonpayable",
      "type": "function"
    },
    {
      "inputs": [
        {
          "internalType": "address",
          "name": "from",
          "type": "address"
        },
        {
          "internalType": "address",
          "name": "to",
          "type": "address"
        },
        {
          "internalType": "uint256",
          "name": "tokenId",
          "type": "uint256"
        },
        {
          "internalType": "bytes",
          "name": "data",
          "type": "bytes"
        }
      ],
      "name": "safeTransferFrom",
      "outputs": [],
      "stateMutability": "nonpayable",
      "type": "function"
    },
    {
      "inputs": [
        {
          "internalType": "address",
          "name": "operator",
          "type": "address"
        },
        {
          "internalType": "bool",
          "name": "approved",
          "type": "bool"
        }
      ],
      "name": "setApprovalForAll",
      "outputs": [],
      "stateMutability": "nonpayable",
      "type": "function"
    },
    {
      "inputs": [
        {
          "internalType": "bytes4",
          "name": "interfaceId",
          "type": "bytes4"
        }
      ],
      "name": "supportsInterface",
      "outputs": [
        {
          "internalType": "bool",
          "name": "",
          "type": "bool"
        }
      ],
      "stateMutability": "view",
      "type": "function"
    },
    {
      "inputs": [],
      "name": "symbol",
      "outputs": [
        {
          "internalType": "string",
          "name": "",
          "type": "string"
        }
      ],
      "stateMutability": "view",
      "type": "function"
    },
    {
      "inputs": [
        {
          "internalType": "uint256",
          "name": "tokenId",
          "type": "uint256"
        }
      ],
      "name": "tokenURI",
      "outputs": [
        {
          "internalType": "string",
          "name": "",
          "type": "string"
        }
      ],
      "stateMutability": "view",
      "type": "function"
    },
    {
      "inputs": [
        {
          "internalType": "address",
          "name": "from",
          "type": "address"
        },
        {
          "internalType": "address",
          "name": "to",
          "type": "address"
        },
        {
          "internalType": "uint256",
          "name": "tokenId",
          "type": "uint256"
        }
      ],
      "name": "transferFrom",
      "outputs": [],
      "stateMutability": "nonpayable",
      "type": "function"
    }
  ],
  "bytecode": "0x60806040523480156200001157600080fd5b506040518060400160405280600981526020017f54726176656c53425400000000000000000000000000000000000000000000008152506040518060400160405280600481526020017f545342540000000000000000000000000000000000000000000000000000000081525081600090816200008f919062000324565b508060019081620000a1919062000324565b5050506200040b565b600081519050919050565b7f4e487b7100000000000000000000000000000000000000000000000000000000600052604160045260246000fd5b7f4e487b7100000000000000000000000000000000000000000000000000000000600052602260045260246000fd5b600060028204905060018216806200012c57607f821691505b602082108103620001425762000141620000e4565b5b50919050565b60008190508160005260206000209050919050565b60006020601f8301049050919050565b600082821b905092915050565b600060088302620001ac7fffffffffffffffffffffffffffffffffffffffffffffffffffffffffffffffff826200016d565b620001b886836200016d565b95508019841693508086168417925050509392505050565b6000819050919050565b6000819050919050565b600062000205620001ff620001f984620001d0565b620001da565b620001d0565b9050919050565b6000819050919050565b6200022183620001e4565b6200023962000230826200020c565b8484546200017a565b825550505050565b600090565b6200025062000241565b6200025d81848462000216565b505050565b5b8181101562000285576200027960008262000246565b60018101905062000263565b5050565b601f821115620002d4576200029e8162000148565b620002a9846200015d565b81016020851015620002b9578190505b620002d1620002c8856200015d565b83018262000262565b50505b505050565b600082821c905092915050565b6000620002f960001984600802620002d9565b1980831691505092915050565b6000620003148383620002e6565b9150826002028217905092915050565b6200032f82620000aa565b67ffffffffffffffff8111156200034b576200034a620000b5565b5b62000357825462000113565b6200036482828562000289565b600060209050601f8311600181146200039c576000841562000387578287015190505b62000393858262000306565b86555062000403565b601f198416620003ac8662000148565b60005b82811015620003d657848901518255600182019150602085019450602081019050620003af565b86831015620003f65784890151620003f2601f891682620002e6565b8355505b6001600288020188555050505b505050505050565b611f59806200041b6000396000f3fe608060405234801561001057600080fd5b50600436106100ea5760003560e01c806370a082311161008c578063b88d4fde11610066578063b88d4fde1461025b578063c87b56dd14610277578063e0595626146102a7578063e985e9c5146102c3576100ea565b806370a08231146101f157806395d89b4114610221578063a22cb4651461023f576100ea565b8063095ea7b3116100c8578063095ea7b31461016d57806323b872dd1461018957806342842e0e146101a55780636352211e146101c1576100ea565b806301ffc9a7146100ef57806306fdde031461011f578063081812fc1461013d575b600080fd5b61010960048036038101906101049190611711565b6102f3565b6040516101169190611759565b60405180910390f35b6101276103d5565b6040516101349190611804565b60405180910390f35b6101576004803603810190610152919061185c565b610467565b60405161016491906118ca565b60405180910390f35b61018760048036038101906101829190611911565b610483565b005b6101a3600480360381019061019e9190611951565b610499565b005b6101bf60048036038101906101ba9190611951565b61059b565b005b6101db60048036038101906101d6919061185c565b6105bb565b6040516101e891906118ca565b60405180910390f35b61020b600480360381019061020691906119a4565b6105cd565b60405161021891906119e0565b60405180910390f35b610229610687565b6040516102369190611804565b60405180910390f35b61025960048036038101906102549190611a27565b610719565b005b61027560048036038101906102709190611b9c565b61072f565b005b610291600480360381019061028c919061185c565b610754565b60405161029e9190611804565b60405180910390f35b6102c160048036038101906102bc9190611911565b6107bd565b005b6102dd60048036038101906102d89190611c1f565b6107cb565b6040516102ea9190611759565b60405180910390f35b60007f80ac58cd000000000000000000000000000000000000000000000000000000007bffffffffffffffffffffffffffffffffffffffffffffffffffffffff1916827bffffffffffffffffffffffffffffffffffffffffffffffffffffffff191614806103be57507f5b5e139f000000000000000000000000000000000000000000000000000000007bffffffffffffffffffffffffffffffffffffffffffffffffffffffff1916827bffffffffffffffffffffffffffffffffffffffffffffffffffffffff1916145b806103ce57506103cd8261085f565b5b9050919050565b6060600080546103e490611c8e565b80601f016020809104026020016040519081016040528092919081815260200182805461041090611c8e565b801561045d5780601f106104325761010080835404028352916020019161045d565b820191906000526020600020905b81548152906001019060200180831161044057829003601f168201915b5050505050905090565b6000610472826108c9565b5061047c82610951565b9050919050565b610495828261049061098e565b610996565b5050565b600073ffffffffffffffffffffffffffffffffffffffff168273ffffffffffffffffffffffffffffffffffffffff160361050b5760006040517f64a0ae9200000000000000000000000000000000000000000000000000000000815260040161050291906118ca565b60405180910390fd5b600061051f838361051a61098e565b6109a8565b90508373ffffffffffffffffffffffffffffffffffffffff168173ffffffffffffffffffffffffffffffffffffffff1614610595578382826040517f64283d7b00000000000000000000000000000000000000000000000000000000815260040161058c93929190611cbf565b60405180910390fd5b50505050565b6105b68383836040518060200160405280600081525061072f565b505050565b60006105c6826108c9565b9050919050565b60008073ffffffffffffffffffffffffffffffffffffffff168273ffffffffffffffffffffffffffffffffffffffff16036106405760006040517f89c62b6400000000000000000000000000000000000000000000000000000000815260040161063791906118ca565b60405180910390fd5b600360008373ffffffffffffffffffffffffffffffffffffffff1673ffffffffffffffffffffffffffffffffffffffff168152602001908152602001600020549050919050565b60606001805461069690611c8e565b80601f01602080910402602001604051908101604052809291908181526020018280546106c290611c8e565b801561070f5780601f106106e45761010080835404028352916020019161070f565b820191906000526020600020905b8154815290600101906020018083116106f257829003601f168201915b5050505050905090565b61072b61072461098e565b8383610a71565b5050565b61073a848484610499565b61074e61074561098e565b85858585610be0565b50505050565b606061075f826108c9565b50600061076a610d91565b9050600081511161078a57604051806020016040528060008152506107b5565b8061079484610da8565b6040516020016107a5929190611d32565b6040516020818303038152906040525b915050919050565b6107c78282610e76565b5050565b6000600560008473ffffffffffffffffffffffffffffffffffffffff1673ffffffffffffffffffffffffffffffffffffffff16815260200190815260200160002060008373ffffffffffffffffffffffffffffffffffffffff1673ffffffffffffffffffffffffffffffffffffffff16815260200190815260200160002060009054906101000a900460ff16905092915050565b60007f01ffc9a7000000000000000000000000000000000000000000000000000000007bffffffffffffffffffffffffffffffffffffffffffffffffffffffff1916827bffffffffffffffffffffffffffffffffffffffffffffffffffffffff1916149050919050565b6000806108d583610e94565b9050600073ffffffffffffffffffffffffffffffffffffffff168173ffffffffffffffffffffffffffffffffffffffff160361094857826040517f7e27328900000000000000000000000000000000000000000000000000000000815260040161093f91906119e0565b60405180910390fd5b80915050919050565b60006004600083815260200190815260200160002060009054906101000a900473ffffffffffffffffffffffffffffffffffffffff169050919050565b600033905090565b6109a38383836001610ed1565b505050565b6000806109b484610e94565b9050600073ffffffffffffffffffffffffffffffffffffffff168173ffffffffffffffffffffffffffffffffffffffff161480610a1d5750600073ffffffffffffffffffffffffffffffffffffffff168573ffffffffffffffffffffffffffffffffffffffff16145b610a5c576040517f08c379a0000000000000000000000000000000000000000000000000000000008152600401610a5390611dc8565b60405180910390fd5b610a67858585611096565b9150509392505050565b600073ffffffffffffffffffffffffffffffffffffffff168273ffffffffffffffffffffffffffffffffffffffff1603610ae257816040517f5b08ba18000000000000000000000000000000000000000000000000000000008152600401610ad991906118ca565b60405180910390fd5b80600560008573ffffffffffffffffffffffffffffffffffffffff1673ffffffffffffffffffffffffffffffffffffffff16815260200190815260200160002060008473ffffffffffffffffffffffffffffffffffffffff1673ffffffffffffffffffffffffffffffffffffffff16815260200190815260200160002060006101000a81548160ff0219169083151502179055508173ffffffffffffffffffffffffffffffffffffffff168373ffffffffffffffffffffffffffffffffffffffff167f17307eab39ab6107e8899845ad3d59bd9653f200f220920489ca2b5937696c3183604051610bd39190611759565b60405180910390a3505050565b60008373ffffffffffffffffffffffffffffffffffffffff163b1115610d8a578273ffffffffffffffffffffffffffffffffffffffff1663150b7a02868685856040518563ffffffff1660e01b8152600401610c3f9493929190611e3d565b6020604051808303816000875af1925050508015610c7b57506040513d601f19601f82011682018060405250810190610c789190611e9e565b60015b610cff573d8060008114610cab576040519150601f19603f3d011682016040523d82523d6000602084013e610cb0565b606091505b506000815103610cf757836040517f64a0ae92000000000000000000000000000000000000000000000000000000008152600401610cee91906118ca565b60405180910390fd5b805181602001fd5b63150b7a0260e01b7bffffffffffffffffffffffffffffffffffffffffffffffffffffffff1916817bffffffffffffffffffffffffffffffffffffffffffffffffffffffff191614610d8857836040517f64a0ae92000000000000000000000000000000000000000000000000000000008152600401610d7f91906118ca565b60405180910390fd5b505b5050505050565b606060405180602001604052806000815250905090565b606060006001610db7846112b0565b01905060008167ffffffffffffffff811115610dd657610dd5611a71565b5b6040519080825280601f01601f191660200182016040528015610e085781602001600182028036833780820191505090505b509050600082602001820190505b600115610e6b578080600190039150507f3031323334353637383961626364656600000000000000000000000000000000600a86061a8153600a8581610e5f57610e5e611ecb565b5b04945060008503610e16575b819350505050919050565b610e90828260405180602001604052806000815250611403565b5050565b60006002600083815260200190815260200160002060009054906101000a900473ffffffffffffffffffffffffffffffffffffffff169050919050565b8080610f0a5750600073ffffffffffffffffffffffffffffffffffffffff168273ffffffffffffffffffffffffffffffffffffffff1614155b1561103e576000610f1a846108c9565b9050600073ffffffffffffffffffffffffffffffffffffffff168373ffffffffffffffffffffffffffffffffffffffff1614158015610f8557508273ffffffffffffffffffffffffffffffffffffffff168173ffffffffffffffffffffffffffffffffffffffff1614155b8015610f985750610f9681846107cb565b155b15610fda57826040517fa9fbf51f000000000000000000000000000000000000000000000000000000008152600401610fd191906118ca565b60405180910390fd5b811561103c57838573ffffffffffffffffffffffffffffffffffffffff168273ffffffffffffffffffffffffffffffffffffffff167f8c5be1e5ebec7d5bd14f71427d1e84f3dd0314c0f7b2291e5b200ac8c7c3b92560405160405180910390a45b505b836004600085815260200190815260200160002060006101000a81548173ffffffffffffffffffffffffffffffffffffffff021916908373ffffffffffffffffffffffffffffffffffffffff16021790555050505050565b6000806110a284610e94565b9050600073ffffffffffffffffffffffffffffffffffffffff168373ffffffffffffffffffffffffffffffffffffffff16146110e4576110e3818486611427565b5b600073ffffffffffffffffffffffffffffffffffffffff168173ffffffffffffffffffffffffffffffffffffffff161461117557611126600085600080610ed1565b6001600360008373ffffffffffffffffffffffffffffffffffffffff1673ffffffffffffffffffffffffffffffffffffffff168152602001908152602001600020600082825403925050819055505b600073ffffffffffffffffffffffffffffffffffffffff168573ffffffffffffffffffffffffffffffffffffffff16146111f8576001600360008773ffffffffffffffffffffffffffffffffffffffff1673ffffffffffffffffffffffffffffffffffffffff168152602001908152602001600020600082825401925050819055505b846002600086815260200190815260200160002060006101000a81548173ffffffffffffffffffffffffffffffffffffffff021916908373ffffffffffffffffffffffffffffffffffffffff160217905550838573ffffffffffffffffffffffffffffffffffffffff168273ffffffffffffffffffffffffffffffffffffffff167fddf252ad1be2c89b69c2b068fc378daa952ba7f163c4a11628f55a4df523b3ef60405160405180910390a4809150509392505050565b600080600090507a184f03e93ff9f4daa797ed6e38ed64bf6a1f010000000000000000831061130e577a184f03e93ff9f4daa797ed6e38ed64bf6a1f010000000000000000838161130457611303611ecb565b5b0492506040810190505b6d04ee2d6d415b85acef8100000000831061134b576d04ee2d6d415b85acef8100000000838161134157611340611ecb565b5b0492506020810190505b662386f26fc10000831061137a57662386f26fc1000083816113705761136f611ecb565b5b0492506010810190505b6305f5e10083106113a3576305f5e100838161139957611398611ecb565b5b0492506008810190505b61271083106113c85761271083816113be576113bd611ecb565b5b0492506004810190505b606483106113eb57606483816113e1576113e0611ecb565b5b0492506002810190505b600a83106113fa576001810190505b80915050919050565b61140d83836114eb565b61142261141861098e565b6000858585610be0565b505050565b6114328383836115e4565b6114e657600073ffffffffffffffffffffffffffffffffffffffff168373ffffffffffffffffffffffffffffffffffffffff16036114a757806040517f7e27328900000000000000000000000000000000000000000000000000000000815260040161149e91906119e0565b60405180910390fd5b81816040517f177e802f0000000000000000000000000000000000000000000000000000000081526004016114dd929190611efa565b60405180910390fd5b505050565b600073ffffffffffffffffffffffffffffffffffffffff168273ffffffffffffffffffffffffffffffffffffffff160361155d5760006040517f64a0ae9200000000000000000000000000000000000000000000000000000000815260040161155491906118ca565b60405180910390fd5b600061156b838360006109a8565b9050600073ffffffffffffffffffffffffffffffffffffffff168173ffffffffffffffffffffffffffffffffffffffff16146115df5760006040517f73c6ac6e0000000000000000000000000000000000000000000000000000000081526004016115d691906118ca565b60405180910390fd5b505050565b60008073ffffffffffffffffffffffffffffffffffffffff168373ffffffffffffffffffffffffffffffffffffffff161415801561169c57508273ffffffffffffffffffffffffffffffffffffffff168473ffffffffffffffffffffffffffffffffffffffff16148061165d575061165c84846107cb565b5b8061169b57508273ffffffffffffffffffffffffffffffffffffffff1661168383610951565b73ffffffffffffffffffffffffffffffffffffffff16145b5b90509392505050565b6000604051905090565b600080fd5b600080fd5b60007fffffffff0000000000000000000000000000000000000000000000000000000082169050919050565b6116ee816116b9565b81146116f957600080fd5b50565b60008135905061170b816116e5565b92915050565b600060208284031215611727576117266116af565b5b6000611735848285016116fc565b91505092915050565b60008115159050919050565b6117538161173e565b82525050565b600060208201905061176e600083018461174a565b92915050565b600081519050919050565b600082825260208201905092915050565b60005b838110156117ae578082015181840152602081019050611793565b60008484015250505050565b6000601f19601f8301169050919050565b60006117d682611774565b6117e0818561177f565b93506117f0818560208601611790565b6117f9816117ba565b840191505092915050565b6000602082019050818103600083015261181e81846117cb565b905092915050565b6000819050919050565b61183981611826565b811461184457600080fd5b50565b60008135905061185681611830565b92915050565b600060208284031215611872576118716116af565b5b600061188084828501611847565b91505092915050565b600073ffffffffffffffffffffffffffffffffffffffff82169050919050565b60006118b482611889565b9050919050565b6118c4816118a9565b82525050565b60006020820190506118df60008301846118bb565b92915050565b6118ee816118a9565b81146118f957600080fd5b50565b60008135905061190b816118e5565b92915050565b60008060408385031215611928576119276116af565b5b6000611936858286016118fc565b925050602061194785828601611847565b9150509250929050565b60008060006060848603121561196a576119696116af565b5b6000611978868287016118fc565b9350506020611989868287016118fc565b925050604061199a86828701611847565b9150509250925092565b6000602082840312156119ba576119b96116af565b5b60006119c8848285016118fc565b91505092915050565b6119da81611826565b82525050565b60006020820190506119f560008301846119d1565b92915050565b611a048161173e565b8114611a0f57600080fd5b50565b600081359050611a21816119fb565b92915050565b60008060408385031215611a3e57611a3d6116af565b5b6000611a4c858286016118fc565b9250506020611a5d85828601611a12565b9150509250929050565b600080fd5b600080fd5b7f4e487b7100000000000000000000000000000000000000000000000000000000600052604160045260246000fd5b611aa9826117ba565b810181811067ffffffffffffffff82111715611ac857611ac7611a71565b5b80604052505050565b6000611adb6116a5565b9050611ae78282611aa0565b919050565b600067ffffffffffffffff821115611b0757611b06611a71565b5b611b10826117ba565b9050602081019050919050565b82818337600083830152505050565b6000611b3f611b3a84611aec565b611ad1565b905082815260208101848484011115611b5b57611b5a611a6c565b5b611b66848285611b1d565b509392505050565b600082601f830112611b8357611b82611a67565b5b8135611b93848260208601611b2c565b91505092915050565b60008060008060808587031215611bb657611bb56116af565b5b6000611bc4878288016118fc565b9450506020611bd5878288016118fc565b9350506040611be687828801611847565b925050606085013567ffffffffffffffff811115611c0757611c066116b4565b5b611c1387828801611b6e565b91505092959194509250565b60008060408385031215611c3657611c356116af565b5b6000611c44858286016118fc565b9250506020611c55858286016118fc565b9150509250929050565b7f4e487b7100000000000000000000000000000000000000000000000000000000600052602260045260246000fd5b60006002820490506001821680611ca657607f821691505b602082108103611cb957611cb8611c5f565b5b50919050565b6000606082019050611cd460008301866118bb565b611ce160208301856119d1565b611cee60408301846118bb565b949350505050565b600081905092915050565b6000611d0c82611774565b611d168185611cf6565b9350611d26818560208601611790565b80840191505092915050565b6000611d3e8285611d01565b9150611d4a8284611d01565b91508190509392505050565b7f546f6b656e20697320536f756c626f756e64202d206e6f207472616e7366657260008201527f7300000000000000000000000000000000000000000000000000000000000000602082015250565b6000611db260218361177f565b9150611dbd82611d56565b604082019050919050565b60006020820190508181036000830152611de181611da5565b9050919050565b600081519050919050565b600082825260208201905092915050565b6000611e0f82611de8565b611e198185611df3565b9350611e29818560208601611790565b611e32816117ba565b840191505092915050565b6000608082019050611e5260008301876118bb565b611e5f60208301866118bb565b611e6c60408301856119d1565b8181036060830152611e7e8184611e04565b905095945050505050565b600081519050611e98816116e5565b92915050565b600060208284031215611eb457611eb36116af565b5b6000611ec284828501611e89565b91505092915050565b7f4e487b7100000000000000000000000000000000000000000000000000000000600052601260045260246000fd5b6000604082019050611f0f60008301856118bb565b611f1c60208301846119d1565b939250505056fea26469706673582212206f6223f0016b5ad03ced693ed0c04f93572a9079f2c24272e77aa57ca0403c1264736f6c63430008140033",
  "linkReferences": {},
  "deployedLinkReferences": {}
}