{
  "_format": "hh-sol-artifact-1",
  "contractName": "TravelNFT",
  "sourceName": "contracts/TravelNFT.sol",
  "abi": [
    {
      "inputs": [],
      "stateMutability": "nonpayable",
      "type": "constructor"
    },
    {
      "inputs": [
        {
          "internalType": "address",
          "name": "sender",
          "type": "address"
        },
        {
          "internalType": "uint256",
          "name": "tokenId",
          "type": "uint256"
        },
        {
          "internalType": "address",
          "name": "owner",
          "type": "address"
        }
      ],
      "name": "ERC721IncorrectOwner",
      "type": "error"
    },
    {
      "inputs": [
        {
          "internalType": "address",
          "name": "operator",
          "type": "address"
        },
        {
          "internalType": "uint256",
          "name": "tokenId",
          "type": "uint256"
        }
      ],
      "name": "ERC721InsufficientApproval",
      "type": "error"
    },
    {
      "inputs": [
        {
          "internalType": "address",
          "name": "approver",
          "type": "address"
        }
      ],
      "name": "ERC721InvalidApprover",
      "type": "error"
    },
    {
      "inputs": [
        {
          "internalType": "address",
          "name": "operator",
          "type": "address"
        }
      ],
      "name": "ERC721InvalidOperator",
      "type": "error"
    },
    {
      "inputs": [
        {
          "internalType": "address",
          "name": "owner",
          "type": "address"
        }
      ],
      "name": "ERC721InvalidOwner",
      "type": "error"
    },
    {
      "inputs": [
        {
          "internalType": "address",
          "name": "receiver",
          "type": "address"
        }
      ],
      "name": "ERC721InvalidReceiver",
      "type": "error"
    },
    {
      "inputs": [
        {
          "internalType": "address",
          "name": "sender",
          "type": "address"
        }
      ],
      "name": "ERC721InvalidSender",
      "type": "error"
    },
    {
      "inputs": [
        {
          "internalType": "uint256",
          "name": "tokenId",
          "type": "uint256"
        }
      ],
      "name": "ERC721NonexistentToken",
      "type": "error"
    },
    {
      "anonymous": false,
      "inputs": [
        {
          "indexed": true,
          "internalType": "address",
          "name": "owner",
          "type": "address"
        },
        {
          "indexed": true,
          "internalType": "address",
          "name": "approved",
          "type": "address"
        },
        {
          "indexed": true,
          "internalType": "uint256",
          "name": "tokenId",
          "type": "uint256"
        }
      ],
      "name": "Approval",
      "type": "event"
    },
    {
      "anonymous": false,
      "inputs": [
        {
          "indexed": true,
          "internalType": "address",
          "name": "owner",
          "type": "address"
        },
        {
          "indexed": true,
          "internalType": "address",
          "name": "operator",
          "type": "address"
        },
        {
          "indexed": false,
          "internalType": "bool",
          "name": "approved",
          "type": "bool"
        }
      ],
      "name": "ApprovalForAll",
      "type": "event"
    },
    {
      "anonymous": false,
      "inputs": [
        {
          "indexed": false,
          "internalType": "uint256",
          "name": "_fromTokenId",
          "type": "uint256"
        },
        {
          "indexed": false,
          "internalType": "uint256",
          "name": "_toTokenId",
          "type": "uint256"
        }
      ],
      "name": "BatchMetadataUpdate",
      "type": "event"
    },
    {
      "anonymous": false,
      "inputs": [
        {
          "indexed": false,
          "internalType": "uint256",
          "name": "_tokenId",
          "type": "uint256"
        }
      ],
      "name": "MetadataUpdate",
      "type": "event"
    },
    {
      "anonymous": false,
      "inputs": [
        {
          "indexed": true,
          "internalType": "address",
          "name": "from",
          "type": "address"
        },
        {
          "indexed": true,
          "internalType": "address",
          "name": "to",
          "type": "address"
        },
        {
          "indexed": true,
          "internalType": "uint256",
          "name": "tokenId",
          "type": "uint256"
        }
      ],
      "name": "Transfer",
      "type": "event"
    },
    {
      "inputs": [
        {
          "internalType": "address",
          "name": "to",
          "type": "address"
        },
        {
          "internalType": "uint256",
          "name": "tokenId",
          "type": "uint256"
        }
      ],
      "name": "approve",
      "outputs": [],
      "stateMutability": "nonpayable",
      "type": "function"
    },
    {
      "inputs": [
        {
          "internalType": "address",
          "name": "owner",
          "type": "address"
        }
      ],
      "name": "balanceOf",
      "outputs": [
        {
          "internalType": "uint256",
          "name": "",
          "type": "uint256"
        }
      ],
      "stateMutability": "view",
      "type": "function"
    },
    {
      "inputs": [
        {
          "internalType": "uint256",
          "name": "tokenId",
          "type": "uint256"
        }
      ],
      "name": "getApproved",
      "outputs": [
        {
          "internalType": "address",
          "name": "",
          "type": "address"
        }
      ],
      "stateMutability": "view",
      "type": "function"
    },
    {
      "inputs": [
        {
          "internalType": "address",
          "name": "owner",
          "type": "address"
        },
        {
          "internalType": "address",
          "name": "operator",
          "type": "address"
        }
      ],
      "name": "isApprovedForAll",
      "outputs": [
        {
          "internalType": "bool",
          "name": "",
          "type": "bool"
        }
      ],
      "stateMutability": "view",
      "type": "function"
    },
    {
      "inputs": [
        {
          "internalType": "uint256",
          "name": "",
          "type": "uint256"
        }
      ],
      "name": "locations",
      "outputs": [
        {
          "internalType": "string",
          "name": "name",
          "type": "string"
        },
        {
          "internalType": "string",
          "name": "country",
          "type": "string"
        },
        {
          "internalType": "string",
          "name": "coordinates",
          "type": "string"
        },
        {
          "internalType": "uint256",
          "name": "visitTimestamp",
          "type": "uint256"
        }
      ],
      "stateMutability": "view",
      "type": "function"
    },
    {
      "inputs": [
        {
          "internalType": "address",
          "name": "traveler",
          "type": "address"
        },
        {
          "internalType": "string",
          "name": "name",
          "type": "string"
        },
        {
          "internalType": "string",
          "name": "country",
          "type": "string"
        },
        {
          "internalType": "string",
          "name": "coordinates",
          "type": "string"
        },
        {
          "internalType": "string",
          "name": "tokenURI",
          "type": "string"
        },
        {
          "internalType": "enum NFTType",
          "name": "nftType",
          "type": "uint8"
        }
      ],
      "name": "mintLocationNFT",
      "outputs": [
        {
          "internalType": "uint256",
          "name": "",
          "type": "uint256"
        }
      ],
      "stateMutability": "nonpayable",
      "type": "function"
    },
    {
      "inputs": [],
      "name": "name",
      "outputs": [
        {
          "internalType": "string",
          "name": "",
          "type": "string"
        }
      ],
      "stateMutability": "view",
      "type": "function"
    },
    {
      "inputs": [
        {
          "internalType": "uint256",
          "name": "",
          "type": "uint256"
        }
      ],
      "name": "nftTypes",
      "outputs": [
        {
          "internalType": "enum NFTType",
          "name": "",
          "type": "uint8"
        }
      ],
      "stateMutability": "view",
      "type": "function"
    },
    {
      "inputs": [
        {
          "internalType": "uint256",
          "name": "tokenId",
          "type": "uint256"
        }
      ],
      "name": "ownerOf",
      "outputs": [
        {
          "internalType": "address",
          "name": "",
          "type": "address"
        }
      ],
      "stateMutability": "view",
      "type": "function"
    },
    {
      "inputs": [
        {
          "internalType": "address",
          "name": "from",
          "type": "address"
        },
        {
          "internalType": "address",
          "name": "to",
          "type": "address"
        },
        {
          "internalType": "uint256",
          "name": "tokenId",
          "type": "uint256"
        }
      ],
      "name": "safeTransferFrom",
      "outputs": [],
      "stateMutability": "nonpayable",
      "type": "function"
    },
    {
      "inputs": [
        {
          "internalType": "address",
          "name": "from",
          "type": "address"
        },
        {
          "internalType": "address",
          "name": "to",
          "type": "address"
        },
        {
          "internalType": "uint256",
          "name": "tokenId",
          "type": "uint256"
        },
        {
          "internalType": "bytes",
          "name": "data",
          "type": "bytes"
        }
      ],
      "name": "safeTransferFrom",
      "outputs": [],
      "stateMutability": "nonpayable",
      "type": "function"
    },
    {
      "inputs": [
        {
          "internalType": "address",
          "name": "operator",
          "type": "address"
        },
        {
          "internalType": "bool",
          "name": "approved",
          "type": "bool"
        }
      ],
      "name": "setApprovalForAll",
      "outputs": [],
      "stateMutability": "nonpayable",
      "type": "function"
    },
    {
      "inputs": [
        {
          "internalType": "bytes4",
          "name": "interfaceId",
          "type": "bytes4"
        }
      ],
      "name": "supportsInterface",
      "outputs": [
        {
          "internalType": "bool",
          "name": "",
          "type": "bool"
        }
      ],
      "stateMutability": "view",
      "type": "function"
    },
    {
      "inputs": [],
      "name": "symbol",
      "outputs": [
        {
          "internalType": "string",
          "name": "",
          "type": "string"
        }
      ],
      "stateMutability": "view",
      "type": "function"
    },
    {
      "inputs": [
        {
          "internalType": "uint256",
          "name": "tokenId",
          "type": "uint256"
        }
      ],
      "name": "tokenURI",
      "outputs": [
        {
          "internalType": "string",
          "name": "",
          "type": "string"
        }
      ],
      "stateMutability": "view",
      "type": "function"
    },
    {
      "inputs": [
        {
          "internalType": "address",
          "name": "from",
          "type": "address"
        },
        {
          "internalType": "address",
          "name": "to",
          "type": "address"
        },
        {
          "internalType": "uint256",
          "name": "tokenId",
          "type": "uint256"
        }
      ],
      "name": "transferFrom",
      "outputs": [],
      "stateMutability": "nonpayable",
      "type": "function"
    }
  ],
  "bytecode": "0x60806040523480156200001157600080fd5b506040518060400160405280600981526020017f54726176656c4e465400000000000000000000000000000000000000000000008152506040518060400160405280600481526020017f544e46540000000000000000000000000000000000000000000000000000000081525081600090816200008f919062000324565b508060019081620000a1919062000324565b5050506200040b565b600081519050919050565b7f4e487b7100000000000000000000000000000000000000000000000000000000600052604160045260246000fd5b7f4e487b7100000000000000000000000000000000000000000000000000000000600052602260045260246000fd5b600060028204905060018216806200012c57607f821691505b602082108103620001425762000141620000e4565b5b50919050565b60008190508160005260206000209050919050565b60006020601f8301049050919050565b600082821b905092915050565b600060088302620001ac7fffffffffffffffffffffffffffffffffffffffffffffffffffffffffffffffff826200016d565b620001b886836200016d565b95508019841693508086168417925050509392505050565b6000819050919050565b6000819050919050565b600062000205620001ff620001f984620001d0565b620001da565b620001d0565b9050919050565b6000819050919050565b6200022183620001e4565b6200023962000230826200020c565b8484546200017a565b825550505050565b600090565b6200025062000241565b6200025d81848462000216565b505050565b5b8181101562000285576200027960008262000246565b60018101905062000263565b5050565b601f821115620002d4576200029e8162000148565b620002a9846200015d565b81016020851015620002b9578190505b620002d1620002c8856200015d565b83018262000262565b50505b505050565b600082821c905092915050565b6000620002f960001984600802620002d9565b1980831691505092915050565b6000620003148383620002e6565b9150826002028217905092915050565b6200032f82620000aa565b67ffffffffffffffff8111156200034b576200034a620000b5565b5b62000357825462000113565b6200036482828562000289565b600060209050601f8311600181146200039c576000841562000387578287015190505b62000393858262000306565b86555062000403565b601f198416620003ac8662000148565b60005b82811015620003d657848901518255600182019150602085019450602081019050620003af565b86831015620003f65784890151620003f2601f891682620002e6565b8355505b6001600288020188555050505b505050505050565b612898806200041b6000396000f3fe608060405234801561001057600080fd5b50600436106101005760003560e01c806379b2ab2311610097578063b88d4fde11610066578063b88d4fde146102d1578063b9e0db35146102ed578063c87b56dd14610320578063e985e9c51461035057610100565b806379b2ab231461023757806395d89b41146102675780639d2c588d14610285578063a22cb465146102b557610100565b806323b872dd116100d357806323b872dd1461019f57806342842e0e146101bb5780636352211e146101d757806370a082311461020757610100565b806301ffc9a71461010557806306fdde0314610135578063081812fc14610153578063095ea7b314610183575b600080fd5b61011f600480360381019061011a9190611b3e565b610380565b60405161012c9190611b86565b60405180910390f35b61013d6103e1565b60405161014a9190611c31565b60405180910390f35b61016d60048036038101906101689190611c89565b610473565b60405161017a9190611cf7565b60405180910390f35b61019d60048036038101906101989190611d3e565b61048f565b005b6101b960048036038101906101b49190611d7e565b6104a5565b005b6101d560048036038101906101d09190611d7e565b6105a7565b005b6101f160048036038101906101ec9190611c89565b6105c7565b6040516101fe9190611cf7565b60405180910390f35b610221600480360381019061021c9190611dd1565b6105d9565b60405161022e9190611e0d565b60405180910390f35b610251600480360381019061024c9190611c89565b610693565b60405161025e9190611e9f565b60405180910390f35b61026f6106b3565b60405161027c9190611c31565b60405180910390f35b61029f600480360381019061029a9190612014565b610745565b6040516102ac9190611e0d565b60405180910390f35b6102cf60048036038101906102ca919061213d565b610846565b005b6102eb60048036038101906102e6919061221e565b61085c565b005b61030760048036038101906103029190611c89565b610881565b60405161031794939291906122a1565b60405180910390f35b61033a60048036038101906103359190611c89565b610a49565b6040516103479190611c31565b60405180910390f35b61036a600480360381019061036591906122fb565b610b5c565b6040516103779190611b86565b60405180910390f35b6000634906490660e01b7bffffffffffffffffffffffffffffffffffffffffffffffffffffffff1916827bffffffffffffffffffffffffffffffffffffffffffffffffffffffff191614806103da57506103d982610bf0565b5b9050919050565b6060600080546103f09061236a565b80601f016020809104026020016040519081016040528092919081815260200182805461041c9061236a565b80156104695780601f1061043e57610100808354040283529160200191610469565b820191906000526020600020905b81548152906001019060200180831161044c57829003601f168201915b5050505050905090565b600061047e82610cd2565b5061048882610d5a565b9050919050565b6104a1828261049c610d97565b610d9f565b5050565b600073ffffffffffffffffffffffffffffffffffffffff168273ffffffffffffffffffffffffffffffffffffffff16036105175760006040517f64a0ae9200000000000000000000000000000000000000000000000000000000815260040161050e9190611cf7565b60405180910390fd5b600061052b8383610526610d97565b610db1565b90508373ffffffffffffffffffffffffffffffffffffffff168173ffffffffffffffffffffffffffffffffffffffff16146105a1578382826040517f64283d7b0000000000000000000000000000000000000000000000000000000081526004016105989392919061239b565b60405180910390fd5b50505050565b6105c28383836040518060200160405280600081525061085c565b505050565b60006105d282610cd2565b9050919050565b60008073ffffffffffffffffffffffffffffffffffffffff168273ffffffffffffffffffffffffffffffffffffffff160361064c5760006040517f89c62b640000000000000000000000000000000000000000000000000000000081526004016106439190611cf7565b60405180910390fd5b600360008373ffffffffffffffffffffffffffffffffffffffff1673ffffffffffffffffffffffffffffffffffffffff168152602001908152602001600020549050919050565b60096020528060005260406000206000915054906101000a900460ff1681565b6060600180546106c29061236a565b80601f01602080910402602001604051908101604052809291908181526020018280546106ee9061236a565b801561073b5780601f106107105761010080835404028352916020019161073b565b820191906000526020600020905b81548152906001019060200180831161071e57829003601f168201915b5050505050905090565b60006008600081548092919061075a90612401565b9190505550600060085490506107708882610fcb565b61077a81856110c4565b826009600083815260200190815260200160002060006101000a81548160ff021916908360028111156107b0576107af611e28565b5b02179055506040518060800160405280888152602001878152602001868152602001428152506007600083815260200190815260200160002060008201518160000190816107fe91906125f5565b50602082015181600101908161081491906125f5565b50604082015181600201908161082a91906125f5565b5060608201518160030155905050809150509695505050505050565b610858610851610d97565b8383611120565b5050565b6108678484846104a5565b61087b610872610d97565b8585858561128f565b50505050565b60076020528060005260406000206000915090508060000180546108a49061236a565b80601f01602080910402602001604051908101604052809291908181526020018280546108d09061236a565b801561091d5780601f106108f25761010080835404028352916020019161091d565b820191906000526020600020905b81548152906001019060200180831161090057829003601f168201915b5050505050908060010180546109329061236a565b80601f016020809104026020016040519081016040528092919081815260200182805461095e9061236a565b80156109ab5780601f10610980576101008083540402835291602001916109ab565b820191906000526020600020905b81548152906001019060200180831161098e57829003601f168201915b5050505050908060020180546109c09061236a565b80601f01602080910402602001604051908101604052809291908181526020018280546109ec9061236a565b8015610a395780601f10610a0e57610100808354040283529160200191610a39565b820191906000526020600020905b815481529060010190602001808311610a1c57829003601f168201915b5050505050908060030154905084565b6060610a5482610cd2565b506000600660008481526020019081526020016000208054610a759061236a565b80601f0160208091040260200160405190810160405280929190818152602001828054610aa19061236a565b8015610aee5780601f10610ac357610100808354040283529160200191610aee565b820191906000526020600020905b815481529060010190602001808311610ad157829003601f168201915b505050505090506000610aff611440565b90506000815103610b14578192505050610b57565b600082511115610b49578082604051602001610b31929190612703565b60405160208183030381529060405292505050610b57565b610b5284611457565b925050505b919050565b6000600560008473ffffffffffffffffffffffffffffffffffffffff1673ffffffffffffffffffffffffffffffffffffffff16815260200190815260200160002060008373ffffffffffffffffffffffffffffffffffffffff1673ffffffffffffffffffffffffffffffffffffffff16815260200190815260200160002060009054906101000a900460ff16905092915050565b60007f80ac58cd000000000000000000000000000000000000000000000000000000007bffffffffffffffffffffffffffffffffffffffffffffffffffffffff1916827bffffffffffffffffffffffffffffffffffffffffffffffffffffffff19161480610cbb57507f5b5e139f000000000000000000000000000000000000000000000000000000007bffffffffffffffffffffffffffffffffffffffffffffffffffffffff1916827bffffffffffffffffffffffffffffffffffffffffffffffffffffffff1916145b80610ccb5750610cca826114c0565b5b9050919050565b600080610cde8361152a565b9050600073ffffffffffffffffffffffffffffffffffffffff168173ffffffffffffffffffffffffffffffffffffffff1603610d5157826040517f7e273289000000000000000000000000000000000000000000000000000000008152600401610d489190611e0d565b60405180910390fd5b80915050919050565b60006004600083815260200190815260200160002060009054906101000a900473ffffffffffffffffffffffffffffffffffffffff169050919050565b600033905090565b610dac8383836001611567565b505050565b600080610dbd8461152a565b9050600073ffffffffffffffffffffffffffffffffffffffff168373ffffffffffffffffffffffffffffffffffffffff1614610dff57610dfe81848661172c565b5b600073ffffffffffffffffffffffffffffffffffffffff168173ffffffffffffffffffffffffffffffffffffffff1614610e9057610e41600085600080611567565b6001600360008373ffffffffffffffffffffffffffffffffffffffff1673ffffffffffffffffffffffffffffffffffffffff168152602001908152602001600020600082825403925050819055505b600073ffffffffffffffffffffffffffffffffffffffff168573ffffffffffffffffffffffffffffffffffffffff1614610f13576001600360008773ffffffffffffffffffffffffffffffffffffffff1673ffffffffffffffffffffffffffffffffffffffff168152602001908152602001600020600082825401925050819055505b846002600086815260200190815260200160002060006101000a81548173ffffffffffffffffffffffffffffffffffffffff021916908373ffffffffffffffffffffffffffffffffffffffff160217905550838573ffffffffffffffffffffffffffffffffffffffff168273ffffffffffffffffffffffffffffffffffffffff167fddf252ad1be2c89b69c2b068fc378daa952ba7f163c4a11628f55a4df523b3ef60405160405180910390a4809150509392505050565b600073ffffffffffffffffffffffffffffffffffffffff168273ffffffffffffffffffffffffffffffffffffffff160361103d5760006040517f64a0ae920000000000000000000000000000000000000000000000000000000081526004016110349190611cf7565b60405180910390fd5b600061104b83836000610db1565b9050600073ffffffffffffffffffffffffffffffffffffffff168173ffffffffffffffffffffffffffffffffffffffff16146110bf5760006040517f73c6ac6e0000000000000000000000000000000000000000000000000000000081526004016110b69190611cf7565b60405180910390fd5b505050565b806006600084815260200190815260200160002090816110e491906125f5565b507ff8e1a15aba9398e019f0b49df1a4fde98ee17ae345cb5f6b5e2c27f5033e8ce7826040516111149190611e0d565b60405180910390a15050565b600073ffffffffffffffffffffffffffffffffffffffff168273ffffffffffffffffffffffffffffffffffffffff160361119157816040517f5b08ba180000000000000000000000000000000000000000000000000000000081526004016111889190611cf7565b60405180910390fd5b80600560008573ffffffffffffffffffffffffffffffffffffffff1673ffffffffffffffffffffffffffffffffffffffff16815260200190815260200160002060008473ffffffffffffffffffffffffffffffffffffffff1673ffffffffffffffffffffffffffffffffffffffff16815260200190815260200160002060006101000a81548160ff0219169083151502179055508173ffffffffffffffffffffffffffffffffffffffff168373ffffffffffffffffffffffffffffffffffffffff167f17307eab39ab6107e8899845ad3d59bd9653f200f220920489ca2b5937696c31836040516112829190611b86565b60405180910390a3505050565b60008373ffffffffffffffffffffffffffffffffffffffff163b1115611439578273ffffffffffffffffffffffffffffffffffffffff1663150b7a02868685856040518563ffffffff1660e01b81526004016112ee949392919061277c565b6020604051808303816000875af192505050801561132a57506040513d601f19601f8201168201806040525081019061132791906127dd565b60015b6113ae573d806000811461135a576040519150601f19603f3d011682016040523d82523d6000602084013e61135f565b606091505b5060008151036113a657836040517f64a0ae9200000000000000000000000000000000000000000000000000000000815260040161139d9190611cf7565b60405180910390fd5b805181602001fd5b63150b7a0260e01b7bffffffffffffffffffffffffffffffffffffffffffffffffffffffff1916817bffffffffffffffffffffffffffffffffffffffffffffffffffffffff19161461143757836040517f64a0ae9200000000000000000000000000000000000000000000000000000000815260040161142e9190611cf7565b60405180910390fd5b505b5050505050565b606060405180602001604052806000815250905090565b606061146282610cd2565b50600061146d611440565b9050600081511161148d57604051806020016040528060008152506114b8565b80611497846117f0565b6040516020016114a8929190612703565b6040516020818303038152906040525b915050919050565b60007f01ffc9a7000000000000000000000000000000000000000000000000000000007bffffffffffffffffffffffffffffffffffffffffffffffffffffffff1916827bffffffffffffffffffffffffffffffffffffffffffffffffffffffff1916149050919050565b60006002600083815260200190815260200160002060009054906101000a900473ffffffffffffffffffffffffffffffffffffffff169050919050565b80806115a05750600073ffffffffffffffffffffffffffffffffffffffff168273ffffffffffffffffffffffffffffffffffffffff1614155b156116d45760006115b084610cd2565b9050600073ffffffffffffffffffffffffffffffffffffffff168373ffffffffffffffffffffffffffffffffffffffff161415801561161b57508273ffffffffffffffffffffffffffffffffffffffff168173ffffffffffffffffffffffffffffffffffffffff1614155b801561162e575061162c8184610b5c565b155b1561167057826040517fa9fbf51f0000000000000000000000000000000000000000000000000000000081526004016116679190611cf7565b60405180910390fd5b81156116d257838573ffffffffffffffffffffffffffffffffffffffff168273ffffffffffffffffffffffffffffffffffffffff167f8c5be1e5ebec7d5bd14f71427d1e84f3dd0314c0f7b2291e5b200ac8c7c3b92560405160405180910390a45b505b836004600085815260200190815260200160002060006101000a81548173ffffffffffffffffffffffffffffffffffffffff021916908373ffffffffffffffffffffffffffffffffffffffff16021790555050505050565b6117378383836118be565b6117eb57600073ffffffffffffffffffffffffffffffffffffffff168373ffffffffffffffffffffffffffffffffffffffff16036117ac57806040517f7e2732890000000000000000000000000000000000000000000000000000000081526004016117a39190611e0d565b60405180910390fd5b81816040517f177e802f0000000000000000000000000000000000000000000000000000000081526004016117e292919061280a565b60405180910390fd5b505050565b6060600060016117ff8461197f565b01905060008167ffffffffffffffff81111561181e5761181d611ec4565b5b6040519080825280601f01601f1916602001820160405280156118505781602001600182028036833780820191505090505b509050600082602001820190505b6001156118b3578080600190039150507f3031323334353637383961626364656600000000000000000000000000000000600a86061a8153600a85816118a7576118a6612833565b5b0494506000850361185e575b819350505050919050565b60008073ffffffffffffffffffffffffffffffffffffffff168373ffffffffffffffffffffffffffffffffffffffff161415801561197657508273ffffffffffffffffffffffffffffffffffffffff168473ffffffffffffffffffffffffffffffffffffffff16148061193757506119368484610b5c565b5b8061197557508273ffffffffffffffffffffffffffffffffffffffff1661195d83610d5a565b73ffffffffffffffffffffffffffffffffffffffff16145b5b90509392505050565b600080600090507a184f03e93ff9f4daa797ed6e38ed64bf6a1f01000000000000000083106119dd577a184f03e93ff9f4daa797ed6e38ed64bf6a1f01000000000000000083816119d3576119d2612833565b5b0492506040810190505b6d04ee2d6d415b85acef81000000008310611a1a576d04ee2d6d415b85acef81000000008381611a1057611a0f612833565b5b0492506020810190505b662386f26fc100008310611a4957662386f26fc100008381611a3f57611a3e612833565b5b0492506010810190505b6305f5e1008310611a72576305f5e1008381611a6857611a67612833565b5b0492506008810190505b6127108310611a97576127108381611a8d57611a8c612833565b5b0492506004810190505b60648310611aba5760648381611ab057611aaf612833565b5b0492506002810190505b600a8310611ac9576001810190505b80915050919050565b6000604051905090565b600080fd5b600080fd5b60007fffffffff0000000000000000000000000000000000000000000000000000000082169050919050565b611b1b81611ae6565b8114611b2657600080fd5b50565b600081359050611b3881611b12565b92915050565b600060208284031215611b5457611b53611adc565b5b6000611b6284828501611b29565b91505092915050565b60008115159050919050565b611b8081611b6b565b82525050565b6000602082019050611b9b6000830184611b77565b92915050565b600081519050919050565b600082825260208201905092915050565b60005b83811015611bdb578082015181840152602081019050611bc0565b60008484015250505050565b6000601f19601f8301169050919050565b6000611c0382611ba1565b611c0d8185611bac565b9350611c1d818560208601611bbd565b611c2681611be7565b840191505092915050565b60006020820190508181036000830152611c4b8184611bf8565b905092915050565b6000819050919050565b611c6681611c53565b8114611c7157600080fd5b50565b600081359050611c8381611c5d565b92915050565b600060208284031215611c9f57611c9e611adc565b5b6000611cad84828501611c74565b91505092915050565b600073ffffffffffffffffffffffffffffffffffffffff82169050919050565b6000611ce182611cb6565b9050919050565b611cf181611cd6565b82525050565b6000602082019050611d0c6000830184611ce8565b92915050565b611d1b81611cd6565b8114611d2657600080fd5b50565b600081359050611d3881611d12565b92915050565b60008060408385031215611d5557611d54611adc565b5b6000611d6385828601611d29565b9250506020611d7485828601611c74565b9150509250929050565b600080600060608486031215611d9757611d96611adc565b5b6000611da586828701611d29565b9350506020611db686828701611d29565b9250506040611dc786828701611c74565b9150509250925092565b600060208284031215611de757611de6611adc565b5b6000611df584828501611d29565b91505092915050565b611e0781611c53565b82525050565b6000602082019050611e226000830184611dfe565b92915050565b7f4e487b7100000000000000000000000000000000000000000000000000000000600052602160045260246000fd5b60038110611e6857611e67611e28565b5b50565b6000819050611e7982611e57565b919050565b6000611e8982611e6b565b9050919050565b611e9981611e7e565b82525050565b6000602082019050611eb46000830184611e90565b92915050565b600080fd5b600080fd5b7f4e487b7100000000000000000000000000000000000000000000000000000000600052604160045260246000fd5b611efc82611be7565b810181811067ffffffffffffffff82111715611f1b57611f1a611ec4565b5b80604052505050565b6000611f2e611ad2565b9050611f3a8282611ef3565b919050565b600067ffffffffffffffff821115611f5a57611f59611ec4565b5b611f6382611be7565b9050602081019050919050565b82818337600083830152505050565b6000611f92611f8d84611f3f565b611f24565b905082815260208101848484011115611fae57611fad611ebf565b5b611fb9848285611f70565b509392505050565b600082601f830112611fd657611fd5611eba565b5b8135611fe6848260208601611f7f565b91505092915050565b60038110611ffc57600080fd5b50565b60008135905061200e81611fef565b92915050565b60008060008060008060c0878903121561203157612030611adc565b5b600061203f89828a01611d29565b965050602087013567ffffffffffffffff8111156120605761205f611ae1565b5b61206c89828a01611fc1565b955050604087013567ffffffffffffffff81111561208d5761208c611ae1565b5b61209989828a01611fc1565b945050606087013567ffffffffffffffff8111156120ba576120b9611ae1565b5b6120c689828a01611fc1565b935050608087013567ffffffffffffffff8111156120e7576120e6611ae1565b5b6120f389828a01611fc1565b92505060a061210489828a01611fff565b9150509295509295509295565b61211a81611b6b565b811461212557600080fd5b50565b60008135905061213781612111565b92915050565b6000806040838503121561215457612153611adc565b5b600061216285828601611d29565b925050602061217385828601612128565b9150509250929050565b600067ffffffffffffffff82111561219857612197611ec4565b5b6121a182611be7565b9050602081019050919050565b60006121c16121bc8461217d565b611f24565b9050828152602081018484840111156121dd576121dc611ebf565b5b6121e8848285611f70565b509392505050565b600082601f83011261220557612204611eba565b5b81356122158482602086016121ae565b91505092915050565b6000806000806080858703121561223857612237611adc565b5b600061224687828801611d29565b945050602061225787828801611d29565b935050604061226887828801611c74565b925050606085013567ffffffffffffffff81111561228957612288611ae1565b5b612295878288016121f0565b91505092959194509250565b600060808201905081810360008301526122bb8187611bf8565b905081810360208301526122cf8186611bf8565b905081810360408301526122e38185611bf8565b90506122f26060830184611dfe565b95945050505050565b6000806040838503121561231257612311611adc565b5b600061232085828601611d29565b925050602061233185828601611d29565b9150509250929050565b7f4e487b7100000000000000000000000000000000000000000000000000000000600052602260045260246000fd5b6000600282049050600182168061238257607f821691505b6020821081036123955761239461233b565b5b50919050565b60006060820190506123b06000830186611ce8565b6123bd6020830185611dfe565b6123ca6040830184611ce8565b949350505050565b7f4e487b7100000000000000000000000000000000000000000000000000000000600052601160045260246000fd5b600061240c82611c53565b91507fffffffffffffffffffffffffffffffffffffffffffffffffffffffffffffffff820361243e5761243d6123d2565b5b600182019050919050565b60008190508160005260206000209050919050565b60006020601f8301049050919050565b600082821b905092915050565b6000600883026124ab7fffffffffffffffffffffffffffffffffffffffffffffffffffffffffffffffff8261246e565b6124b5868361246e565b95508019841693508086168417925050509392505050565b6000819050919050565b60006124f26124ed6124e884611c53565b6124cd565b611c53565b9050919050565b6000819050919050565b61250c836124d7565b612520612518826124f9565b84845461247b565b825550505050565b600090565b612535612528565b612540818484612503565b505050565b5b818110156125645761255960008261252d565b600181019050612546565b5050565b601f8211156125a95761257a81612449565b6125838461245e565b81016020851015612592578190505b6125a661259e8561245e565b830182612545565b50505b505050565b600082821c905092915050565b60006125cc600019846008026125ae565b1980831691505092915050565b60006125e583836125bb565b9150826002028217905092915050565b6125fe82611ba1565b67ffffffffffffffff81111561261757612616611ec4565b5b612621825461236a565b61262c828285612568565b600060209050601f83116001811461265f576000841561264d578287015190505b61265785826125d9565b8655506126bf565b601f19841661266d86612449565b60005b8281101561269557848901518255600182019150602085019450602081019050612670565b868310156126b257848901516126ae601f8916826125bb565b8355505b6001600288020188555050505b505050505050565b600081905092915050565b60006126dd82611ba1565b6126e781856126c7565b93506126f7818560208601611bbd565b80840191505092915050565b600061270f82856126d2565b915061271b82846126d2565b91508190509392505050565b600081519050919050565b600082825260208201905092915050565b600061274e82612727565b6127588185612732565b9350612768818560208601611bbd565b61277181611be7565b840191505092915050565b60006080820190506127916000830187611ce8565b61279e6020830186611ce8565b6127ab6040830185611dfe565b81810360608301526127bd8184612743565b905095945050505050565b6000815190506127d781611b12565b92915050565b6000602082840312156127f3576127f2611adc565b5b6000612801848285016127c8565b91505092915050565b600060408201905061281f6000830185611ce8565b61282c6020830184611dfe565b9392505050565b7f4e487b7100000000000000000000000000000000000000000000000000000000600052601260045260246000fdfea26469706673582212202a4774ceb530ed07b0bccc2fe0db924282a458c490cddcc46e8d48676221039f64736f6c63430008140033",
  "linkReferences": {},
  "deployedLinkReferences": {}
}